:020000020000FC
:0200000030C00E
:02001C00E3C03F
:0200440001C1F8
:02005000D0C01E
:1000600005C1002411242224332444245524662469
:10007000772488249924AA24BB24CC24DD24EE24CC
:10008000FF240027112722273327442755276627D7
:10009000772788279927AA27BB27CC27DD27EE2794
:1000A000FF278FEF8DBF84E08EBF8827E0E0F1E06F
:1000B0008193E030E9F7F530D9F788E58ABD8FEF15
:1000C0008CBD88E48BBD629A88E1C82E86E484BD2D
:1000D00088E285BD82E082BD80E781BD409A80E9EB
:1000E000809378008EE08093770080E080937500A5
:1000F00082E080937400719A80E48ABF81E08093EB
:100100006D0082E680936C00882780936E00809358
:100110006F00809372008DE080937100429A4A9A3A
:1001200088E080BF80E080BB8FEF82BB6398739ACA
:100130008FEF0BB0082603FA10F80FB00826B2E0D4
:10014000D1E0F1E0789410FD1FC06627AB2D6395D8
:10015000693181F0A73109F4AFEFA395BA952C91DD
:10016000B3958C91821799F32C932A2F7A2EBA2E5D
:1001700011600AC04395483131F008F04427242F1C
:10018000742E116001C0156014FD1FC06627AC2DD0
:100190006395693181F0AF3209F4A7E1A395BA956F
:1001A0003C91B3958C91831799F33C933A2F8A2E07
:1001B000CA2E10610AC05395503331F008F058E14F
:1001C000352F852E106101C010658FEF2BB02826CA
:1001D00023FA30F82FB028262010B5CF3110B3CF36
:1001E000A895B1CFAFB63A9A02FF4A9A0B7FAFBE3D
:1001F00018957091790060907300AFB673FD15C0CB
:1002000074FD16C000FF11C001FD19C00460501438
:10021000410430F041FC09C0E03341F06694619242
:10022000539409F44394AFBE18950E7FAFBE189552
:10023000E0E0F1E0552444240360AFBE189564105B
:10024000F4CF0D7FAFBE1895AFB611FD07C0126099
:10025000206812FD29EF20BDAFBE1895C72D78800C
:1002600012FD7724187F70BCAFBE189503FD2AC01D
:10027000AFB615FD07C010623068385116FD39EF72
:10028000732F07C0C82D888016FD88241F78782D0D
:1002900000C09927086070FB96F971FB95F972FB15
:1002A00094F973FB93F974FB92F975FB91F99CBD7A
:1002B00094E49BBD90E197F976FB96F977FB95F96D
:1002C000AFBE1895077F9CBD98E4399B99E49BBD10
:0402D000AFBE189510
:103FEC00444D5832504D582056312062792047614B
:043FFC006273276560
:00000001FF
